:020000040800F2
:1000000000000320216600084560000853600008D6
:10001000596000085F60000865600008000000008B
:100020000000000000000000000000006B600008FD
:1000300079600008000000008760000895600008F3
:100040007166000871660008716600087166000834
:100050007166000871660008716600087166000824
:10006000A16000087166000835620008716600082A
:100070007166000871660008716600087166000804
:1000800071660008716600087166000871660008F4
:10009000716600087166000871660008C96300088F
:1000A00071660008716600087166000871660008D4
:1000B00071660008716600087166000871660008C4
:1000C00071660008716600087166000871660008B4
:1000D00071660008716600087166000871660008A4
:1000E0007166000871660008716600087166000894
:1000F0007166000871660008716600087166000884
:100100007166000871660008716600087166000873
:100110007166000871660008716600087166000863
:100120007166000871660008716600087166000853
:100130007166000871660008716600087166000843
:100140007166000871660008716600087166000833
:100150007166000871660008716600087166000823
:100160007166000871660008716600087166000813
:1001700071660008716600087166000800000000E2
:1001800071660008716600087166000871660008F3
:1001900071660008716600087166000871660008E3
:0C01A000716600087166000871660008B6
:1001B00010B5054C237833B9044B13B10448AFF3A1
:1001C00000800123237010BDEC74022000000000A9
:1001D000046F000808B5034B1BB103490348AFF394
:1001E000008008BD00000000F0740220046F0008C9
:1001F00001F0FF01102A2BDB10F0070F08D010F8D8
:10020000013B013A8B422DD010F0070F42B3F6D1DB
:10021000F0B441EA012141EA014122F007047FF0F4
:1002200000070023F0E80256083C85EA010586EA4B
:10023000010685FA47F5A3FA87F586FA47F6A5FA87
:1002400087F68EB9EED1F0BC01F0FF0102F0070293
:1002500032B110F8013B013A83EA010313B1F8D13E
:100260000020704701387047002D06BF354603381F
:10027000073815F0010F07D1013015F4807F02BF58
:10028000013015F4C03F0130F0BC0138704700BFA9
:1002900053B94AB9002908BF00281CBF4FF0FF31ED
:1002A0004FF0FF3000F072B9ADF1080C6DE904CEEB
:1002B00000F006F8DDF804E0DDE9022304B0704741
:1002C0002DE9F047089E04468846002B4BD18A4210
:1002D000154667D9B2FA82F24AB1C2F1200701FA93
:1002E00002F320FA07F7954047EA030894404FEAE3
:1002F000154E230CB8FBFEF71FFA85FC0EFB178882
:1003000043EA084307FB0CF1994209D9EB1807F1BE
:10031000FF3080F01B81994240F21881023F2B444C
:100320005B1AA4B2B3FBFEF00EFB103344EA0344A5
:1003300000FB0CFCA44509D92C1900F1FF3380F017
:100340000781A44540F2048102382C4440EA07406A
:10035000A4EB0C0400271EB1D4400023C6E90043DF
:100360003946BDE8F0878B4209D9002E00F0EB80BA
:100370000027C6E9000138463946BDE8F087B3FAE0
:1003800083F7002F47D18B4202D3824200F2FA80DA
:10039000841A61EB030301209846002EE0D0C6E9E1
:1003A0000048DDE702B9FFDEB2FA82F2002A40F02F
:1003B0008F80491B4FEA154E1FFA85F80127B1FBC4
:1003C000FEFC230C0EFB1C1143EA014308FB0CF15D
:1003D000994207D9EB180CF1FF3002D2994200F292
:1003E000CD808446591AA3B2B1FBFEF00EFB101467
:1003F00043EA044408FB00F8A04507D92C1900F192
:10040000FF3302D2A04500F2B6801846A4EB0804E0
:1004100040EA0C409FE7C7F1200CBB4022FA0CFEDB
:100420004EEA030E01FA07F420FA0CF521FA0CF358
:100430004FEA1E482543B3FBF8F92C0C08FB19338F
:100440001FFA8EFA44EA034309FB0AF49C4202FABB
:1004500007F200FA07F10BD91EEB030309F1FF3095
:1004600080F087809C4240F28480A9F102097344A5
:100470001B1BADB2B3FBF8F008FB103345EA034495
:1004800000FB0AFAA24508D91EEB040400F1FF3371
:100490006BD2A24569D90238744440EA0940A0FBF6
:1004A0000289A4EB0A044C45C2464B4654D351D0B2
:1004B000002E69D0B1EB0A0564EB030404FA0CFCCE
:1004C000FD40FC404CEA0505C6E90054002747E71B
:1004D000C2F1200320FA03F7954001FA02F021FA55
:1004E00003F34FEA154E3843010CB3FBFEF71FFA36
:1004F00085F80EFB173341EA034107FB08F38B42F3
:1005000004FA02F407D9691807F1FF3C2FD28B4295
:100510002DD9023F2944CB1A81B2B3FBFEF00EFB6A
:10052000103341EA034100FB08F38B4207D96918F5
:1005300000F1FF3C17D28B4215D902382944C91A61
:1005400040EA07473BE73746304609E70746E7E614
:100550001846FBE64145ABD2B8EB020A69EB0E0246
:1005600001381346A4E76046E9E7184695E7674671
:10057000D1E781467CE702382C4447E7ACF1020C16
:100580002B442FE7384608E73746E9E6704700BFB7
:1005900080B500AF00F05CFACA2000F05DF9C3201E
:1005A00000F067F9082000F064F9502000F061F9CC
:1005B000CF2000F051F9002000F05BF9C12000F0DD
:1005C00058F9302000F055F9ED2000F045F964208D
:1005D00000F04FF9032000F04CF9122000F049F927
:1005E000812000F046F9E82000F036F9852000F07F
:1005F00040F9002000F03DF9782000F03AF9CB20D6
:1006000000F02AF9392000F034F92C2000F031F9FB
:10061000002000F02EF9342000F02BF9022000F029
:1006200028F9F72000F018F9202000F022F9EA203C
:1006300000F012F9002000F01CF9002000F019F978
:10064000B12000F009F9002000F013F91B2000F0A0
:1006500010F9B62000F000F90A2000F00AF9A220F3
:1006600000F007F9C02000F0F7F8102000F001F9C1
:10067000C12000F0F1F8102000F0FBF8C52000F0D8
:10068000EBF8452000F0F5F8152000F0F2F8C7204F
:1006900000F0E2F8902000F0ECF8362000F0DCF8F2
:1006A000C82000F0E6F8F22000F0D6F8002000F0B4
:1006B000E0F8B02000F0D0F8C22000F0DAF8B62060
:1006C00000F0CAF80A2000F0D4F8A72000F0D1F812
:1006D000272000F0CEF8042000F0CBF82A2000F00C
:1006E000BBF8002000F0C5F8002000F0C2F80020A0
:1006F00000F0BFF8EF2000F0BCF82B2000F0ACF8C1
:10070000002000F0B6F8002000F0B3F8012000F05F
:10071000B0F83F2000F0ADF8F62000F09DF8012081
:1007200000F0A7F8002000F0A4F8062000F0A1F8DF
:100730002C2000F091F8C82000F078FA262000F074
:100740008BF8012000F095F8E02000F085F80F20EC
:1007500000F08FF8292000F08CF8242000F089F8B0
:100760000C2000F086F80E2000F083F8092000F03D
:1007700080F84E2000F07DF8782000F07AF83C20D8
:1007800000F077F8092000F074F8132000F071F8F9
:10079000052000F06EF8172000F06BF8112000F033
:1007A00068F8002000F065F8E12000F055F800201E
:1007B00000F05FF8162000F05CF81B2000F059F8FC
:1007C000042000F056F8112000F053F8072000F044
:1007D00050F8312000F04DF8332000F04AF8422064
:1007E00000F047F8052000F044F80C2000F041F834
:1007F0000A2000F03EF8282000F03BF82F2000F0FF
:1008000038F80F2000F035F8112000F025F8C82046
:1008100000F00CFA292000F01FF82C2000F01CF842
:1008200000BF80BD80B500AF00F012F90321D320D6
:1008300000F02CF803469BB2184680BD80B500AF8F
:10084000292000F009F800BF80BD80B500AF282046
:1008500000F002F800BF80BD80B582B000AF034653
:10086000FB71FB79184600F08DF900BF0837BD46D3
:1008700080BD80B582B000AF0346FB80FB88184680
:1008800000F05EF900BF0837BD4680BD80B582B07C
:1008900000AF03460A46FB8013467B717A79FB88DA
:1008A0001146184600F090F9034618460837BD4631
:1008B00080BD80B400AFF0231846BD465DF8047BD0
:1008C000704780B400AF4FF4A0731846BD465DF882
:1008D000047B704780B500AF194804F0BDF90346AA
:1008E000002B2BD1164B174A1A60154B1822DA61D0
:1008F000134B00229A60124B00225A61104B0022C7
:100900001A610F4B00229A620D4B0722DA620C4BE0
:100910000022DA600A4B00221A62094B4FF400727F
:100920009A61074B00225A62054B4FF482725A605B
:10093000034800F053F8024803F023FD00BF80BDD8
:10094000087502200050014080B584B000AF034616
:10095000FB710023FB73FB799AB2094B1B6807F10B
:100960000801084803F0CDFE0346FB73FB7B002B18
:1009700001D000F027F8BB6818461037BD4680BD8F
:10098000380000200875022080B584B000AF03460F
:10099000FB800023FB73094B1B68B91D012208482B
:1009A00003F07BFD0346FB73FB7B002B01D000F0C3
:1009B00009F800BF1037BD4680BD00BF38000020D9
:1009C0000875022080B500AF034803F03EFDFFF735
:1009D00081FF00BF80BD00BF0875022080B58AB0CE
:1009E00000AF786000233B61174B5B6C164A43F401
:1009F00080135364144B5B6C03F480133B613B69BD
:100A00000023FB60104B1B6B0F4A43F02003136362
:100A10000D4B1B6B03F02003FB60FB684FF460730E
:100A20007B610223BB610223FB6101233B6205233F
:100A30007B6207F114031946044801F01FFE00BF52
:100A40002837BD4680BD00BF003802400014024078
:100A500080B588B000AF364B1B78002B64D1344B87
:100A600001221A700023BB60324B1B6B314A43F0EA
:100A7000080313632F4B1B6B03F00803BB60BB68B9
:100A80004FF40053FB6001233B6100237B61022391
:100A9000BB6107F10C031946274801F0EFFD002365
:100AA0007B60244B1B6B234A43F008031363214BE9
:100AB0001B6B03F008037B607B684FF48053FB6083
:100AC00001233B6100237B610223BB6107F10C031F
:100AD0001946194801F0D2FD00233B60154B1B6BF2
:100AE000144A43F004031363124B1B6B03F004031B
:100AF0003B603B680423FB6001233B6100237B6177
:100B00000223BB6107F10C0319460C4801F0B6FD46
:100B100000220421094802F065F801220421074857
:100B200002F060F8FFF7D6FE00BF2037BD4680BD5B
:100B30006075022000380240000C024000080240AC
:100B400080B582B000AF0346FB8001224FF4005114
:100B50000A4802F047F800220421094802F042F84E
:100B6000FB881846FFF710FF01220421044802F019
:100B700039F800BF0837BD4680BD00BF000C0240F9
:100B80000008024080B582B000AF0346FB7100222E
:100B90004FF400510A4802F025F8002204210948C8
:100BA00002F020F8FB799BB21846FFF7EDFE012218
:100BB0000421044802F016F800BF0837BD4680BD86
:100BC000000C02400008024080B584B000AF03462C
:100BD0000A46FB8013467B710023FB600022042140
:100BE000104801F0FFFF00224FF400510E4801F0C1
:100BF000F9FFFB881846FFF7C7FE7B791846FFF719
:100C0000A3FEF86001224FF40051074801F0EAFF0B
:100C100001220421034801F0E5FFFB681846103764
:100C2000BD4680BD00080240000C024080B582B085
:100C300000AF7860786800F087FF00BF0837BD46D6
:100C400080BD000080B500AF2D4B2E4A1A602C4BA2
:100C500009225A612A4B01229A61294B1D22DA612D
:100C6000274B03221A62264B40F20D125A62244B84
:100C700040F243129A62224B40F21712DA62204B82
:100C800040F247121A631E4B002283F836201C4B99
:100C9000002283F834201A4B002283F835201A4BA7
:100CA00008221A60184BC0221A61174B04229A615D
:100CB000154B4FF400325A62134803F0B1F8104B51
:100CC00000225A600E4B00229A600D4B0022DA601F
:100CD0000B4B00221A6100F0C9FA094802F064F9CE
:100CE0000A4B0B4A1A60094B1B681B68984700F0B7
:100CF000EFFC084800F09CF80023184680BD00BFB8
:100D0000CC76022000680140A4750220747702208E
:100D1000000000203C00002080B500AF034B1B68A2
:100D20009B6A98470346184680BD00BF747702202F
:100D300080B500AF034B1B68DB6A98470346184633
:100D400080BD00BF7477022080B590B000AF03462D
:100D50003960FB800023FB60FFF7DEFF03463B6149
:100D600000237B61FFF7E4FF0346BB610023FB61C7
:100D70003B683B63FF233B6200237B62002387F8D1
:100D80003C30002387F83D30002387F83E304FF495
:100D9000C063BB620723FB62FFF7BEFF03467B63B2
:100DA000FFF7C6FF0346BB63FA8807F10C03194639
:100DB000144802F0C9F9FA88134913465B0013443A
:100DC0009B000B4404334FF0FF321A60FA880E493F
:100DD00013465B0013449B000B4408330B4A1A6014
:100DE000FA88094913465B0013449B000B444FF0FB
:100DF0007F421A60034802F0E5F900BF4037BD4664
:100E000080BD00BFCC760220D87502203C000020B7
:100E100080B483B000AF7860044A7B68136000BF81
:100E20000C37BD465DF8047B704700BFD4750220C7
:100E300080B483B000AF7860084B1A680849134645
:100E40005B0013449B000B4408337A681A6000BFB0
:100E50000C37BD465DF8047B704700BFD475022097
:100E6000D875022080B400AF074B1A6807491346B3
:100E70005B0013449B000B4408331B681846BD46B7
:100E80005DF8047B704700BFD4750220D87502203E
:100E9000F0B585B002AF78600F4B1C680E4B1B6835
:100EA0000E4A342101FB03F313445C331B681D46D7
:100EB000FFF732FF0646FFF73BFF02467B680193D0
:100EC00000230093134632462946204600F084FB57
:100ED00000BF0C37BD46F0BDD4750220CC76022091
:100EE00090B583B000AF0346FB800B46BB80134632
:100EF000FB701B4B1A681B4913465B0013449B0095
:100F00000B4408331B681968FB78A3F12000144BCD
:100F10001A68144C13465B0013449B0023440833A7
:100F20001B68DB8803FB00F00D4B1A680D4C134661
:100F30005B0013449B00234408331B689B880733E2
:100F4000002B00DA0733DB1003FB00F3CA18B98863
:100F5000FB88184600F086FA00BF0C37BD4690BDEE
:100F6000D4750220D8750220B0B588B000AFBA6041
:100F70001A460346FB810B46BB811346FB710123D6
:100F8000FB830023BB830023BB6100233B61BB6861
:100F90007B6102E0BB690133BB617B695A1C7A61EA
:100FA0001B78002BF6D1FFF7B7FE4A4B1A684A4967
:100FB00013465B0013449B000B4408331B689B885B
:100FC000B0FBF3F33B61FB79022B1CD0032B17D052
:100FD000012B2ED13A69BB69D11A3E4B1A683E48A3
:100FE00013465B0013449B00034408331B689B8833
:100FF00003FB01F35B089AB2FB891344FB831BE0FC
:10100000FB89FB8318E03A69BB69D31A99B2314B6B
:101010001A68314813465B0013449B0003440833AD
:101020001B689B8811FB03F39AB2FB891344FB8373
:1010300002E0FB89FB8300BF1AE0BB681A78B9891C
:10104000FB8B1846FFF74CFF224B1A6822491346C8
:101050005B0013449B000B4408331B689A88FB8B8E
:101060001344FB83BB680133BB60BB8B0133BB8381
:10107000BB681B78002B14BF01230023DCB2FFF7F1
:101080004BFE0546B98B134B1A68134813465B0099
:1010900013449B00034408331B689B8803FB01F344
:1010A000EB1A99B20B4B1A680B4813465B001344BA
:1010B0009B00034408331B689B8899422CBF012383
:1010C0000023DBB22340DBB2002BB6D100BF2037B8
:1010D000BD46B0BDD4750220D875022080B582B05F
:1010E00000AF03463960FB80FFF7BCFE0346DB8898
:1010F000FA8812FB03F399B203233A680020FFF742
:1011000033FF00BF0837BD4680BD000090B58BB0EF
:1011100000AFF860B9607A6000237B620023BB6196
:1011200000237B6100233B610023FB617B680A3362
:101130001B781A467B680B331B781B021A447B68AA
:101140000C331B781B041A447B680D331B781B0679
:1011500013447B627B6812331B781A467B68133317
:101160001B781B021A447B6814331B781B041A4437
:101170007B6815331B781B061344BB617B681633F1
:101180001B781A467B6817331B781B021A447B684E
:1011900018331B781B041A447B6819331B781B0611
:1011A00013447B617B681C331B781A467B681D33B4
:1011B0001B781B0213443B612A4B1B682A4A3421CB
:1011C00001FB03F313445C331C68FFF7A5FD0246E3
:1011D000BB6803FB02F2FB6813449B0023443B62A1
:1011E0003B69203B072B02D80023FB6108E03B69E9
:1011F000103B072B02D80223FB6101E00123FB61B6
:101200007B69013BBA6902FB03F33A69D20802FB2E
:1012100003F27B6A13447A6813447B6000237B6289
:1012200018E0396AFB69BA69786800F00DFAFFF7CF
:1012300073FD03469B003A6A13443B623B69DB083B
:10124000BA6902FB03F35B427A6813447B607B6AF2
:1012500001337B627A6A7B699A42E2D300BF2C3702
:10126000BD4690BDD4750220CC76022080B58EB0EC
:1012700000AF00233B62614B5B6C604A43F08063CC
:1012800053645E4B5B6C03F080633B623B6A0023FC
:10129000FB615A4B1B6B594A43F400031363574BD2
:1012A0001B6B03F40003FB61FB690023BB61534B21
:1012B0001B6B524A43F001031363504B1B6B03F04B
:1012C0000103BB61BB6900237B614C4B1B6B4B4A29
:1012D00043F002031363494B1B6B03F002037B6172
:1012E0007B6900233B61454B1B6B444A43F004037D
:1012F0001363424B1B6B03F004033B613B69002308
:10130000FB603E4B1B6B3D4A43F0080313633B4BB2
:101310001B6B03F00803FB60FB680023BB60374BCB
:101320001B6B364A43F020031363344B1B6B03F0F3
:101330002003BB60BB6800237B60304B1B6B2F4AD4
:1013400043F0400313632D4B1B6B03F040037B60A2
:101350007B6841F658037B620223BB620023FB6279
:1013600002233B630E237B6307F1240319462448C1
:1013700001F084F94FF470637B6207F1240319468E
:10138000204801F07BF94FF498637B6207F1240356
:1013900019461D4801F072F948237B6207F12403C6
:1013A00019461A4801F06AF94FF480637B6207F12D
:1013B00024031946164801F061F94FF40C637B626F
:1013C00007F124031946134801F058F903237B62FF
:1013D00009237B6307F1240319460A4801F04EF9FB
:1013E0004FF4A0537B6207F124031946094801F02A
:1013F00045F900BF3837BD4680BD00BF0038024008
:10140000000002400004024000080240000C0240BC
:101410000014024000180240B0B582B000AF03468D
:101420003A60FB800B46BB800C4B1B680C4A342196
:1014300001FB03F313445C331C68BD88FFF76CFCAD
:10144000034603FB05F2FB8813449B0023441A4622
:101450003B68136000BF0837BD46B0BDD47502209D
:10146000CC76022080B588B000AF03463A60FB809E
:101470000B46BB800023FB610023BB6100237B6123
:10148000534B1A68534913465B0013449B000B44AB
:1014900008331B68DB887B824D4B1A684D49134625
:1014A0005B0013449B000B4408331B689B883B8202
:1014B0003B8A0733002B00DA0733DB10DBB2DB009B
:1014C000DAB23B8ADBB2D31AFB730023FB6176E00E
:1014D0003B8A0733002B00DA0733DB101A46FB691F
:1014E00003FB02F33A681344BB603B8A0733002BCB
:1014F00000DA0733DB10012B02D0022B04D00CE002
:10150000BB681B787B6116E0BB681B781B02BA685E
:101510000132127813437B610DE0BB681B781A041B
:10152000BB6801331B781B021343BA68023212787E
:1015300013437B6100BF0023BB6136E03A8ABB697D
:10154000D21AFB7B1344013B012202FA03F31A4631
:101550007B691340002B12D0BB699AB2FB881344FD
:1015600098B21B4B1A681B4913465B0013449B003F
:101570000B441A68BB881946FFF74EFF12E0BB699F
:101580009AB2FB88134498B2114B1A68114913465A
:101590005B0013449B000B4404331A68BB88194654
:1015A000FFF73AFFBB690133BB613B8ABA699A42D4
:1015B000C4D3BB880133BB80FB690133FB617B8AE9
:1015C000FA699A4284D300BF2037BD4680BD00BF70
:1015D000D4750220D875022080B586B002AFF860BD
:1015E000B9607A603B60164B4FF440325A60144B3E
:1015F00000229A60124ABB69D360114B114A1A60EB
:101600000F4800F0AFFD0346002B15D1F9680C48D8
:1016100000F006FF0346002B0ED1BA683B6800932A
:101620007B68F969064800F0E6FD0346002B03D10C
:101630000A21034800F00AFE00BF1037BD4680BDF6
:101640006475022000B0024080B586B002AFF86039
:10165000B9607A603B601C4B4FF480325A601A4B81
:1016600000229A60184B0022DA60174B00221A639E
:10167000154BFF225A63144A3B68D362124B002277
:101680009A62114B114A1A600F4800F06BFD034635
:10169000002B15D101210C4800F0C2FE0346002B9F
:1016A0000ED1F968BA68012300937B68064800F000
:1016B000A2FD0346002B03D10A21034800F0C6FD1A
:1016C00000BF1037BD4680BD6475022000B00240E7
:1016D00080B500AF294B2A4A1A602A4B02221A60B1
:1016E000284B07225A60274B04229A60254B072279
:1016F000DA60244B02221A61224B02225A61214BEA
:1017000002229A611D4B01225A601C4B00229A60F2
:101710001A4B0422DA60194B10221A61174B40222F
:101720005A61164B4FF4C0729A61144B0022DA6171
:10173000124B4FF400621A62104B00225A620F4B98
:101740004FF400529A6200210C4800F07FF80D49D6
:101750000A4802F097FD0346002B03D00A4B0122F2
:101760001A7002E0084B00221A7040F26A5000F032
:101770000DF8054B1B78184680BD00BFF0750220A0
:10178000400100A0247602204400002080B584B0EF
:1017900000AF78600023FB602A4B01221A60294BBE
:1017A00008225A60274B01229A60264B0022DA60F9
:1017B0004FF6FF722349244802F098FD012000F003
:1017C000C3F9204B02221A601E4B08225A601D4B9F
:1017D00001229A601B4B0022DA604FF6FF72194912
:1017E000194802F083FD174B03221A60154B08229B
:1017F0005A60144B04229A60124B0022DA604FF6B2
:10180000FF721049104802F071FD4FF40C73FB6039
:101810000C4B04221A600B4B08225A60094B012220
:101820009A60FB68074AD3604FF6FF720549064885
:1018300002F05CFD7968044802F083FD00BF1037B8
:10184000BD4680BD40760220F075022080B590B084
:1018500000AF786039607B68002B00F0EC800023DB
:10186000BB62774B9B6B764A43F001039363744BE7
:101870009B6B03F00103BB62BB6A00237B62704B6E
:101880001B6B6F4A43F4800313636D4B1B6B03F4B4
:1018900080037B627B6A00233B62694B1B6B684A57
:1018A00043F002031363664B1B6B03F002033B62BE
:1018B0003B6A0023FB61624B1B6B614A43F00403EC
:1018C00013635F4B1B6B03F00403FB61FB69002395
:1018D000BB615B4B1B6B5A4A43F008031363584BC5
:1018E0001B6B03F00803BB61BB6900237B61544B96
:1018F0001B6B534A43F010031363514B1B6B03F0F4
:1019000010037B617B6900233B614D4B1B6B4C4A91
:1019100043F0200313634A4B1B6B03F020033B612E
:101920003B690023FB60464B1B6B454A43F0400379
:101930001363434B1B6B03F04003FB60FB68022304
:101940003B630223BB6300237B630C23FB636023A5
:10195000FB6207F12C0319463A4800F08FFE012381
:10196000FB6207F12C031946374800F087FE4CF262
:101970000373FB6207F12C031946344800F07EFE26
:101980004FF68373FB6207F12C031946304800F0D1
:1019900075FE4FF63F03FB6207F12C0319462D48F5
:1019A00000F06CFE48F23313FB6207F12C0319467A
:1019B000294800F063FE294B00225A60274B802201
:1019C0009A60264B4FF40072DA60244B4FF4806229
:1019D0001A61224B4FF480525A61204B4FF48042DF
:1019E0009A611E4B0022DA611C4B4FF400321A62DE
:1019F0001A4B00225A62194B03229A62174B00229B
:101A0000DA62164B00221A63144B154A1A607B687F
:101A1000124A1A63114A7B689363104800F094FAE3
:101A20000E4800F0E3F900220F21382000F089F978
:101A3000382000F0A2F900BF4037BD4680BD00BF8E
:101A4000003802400004024000080240000C02403E
:101A5000001002400014024000180240507602209C
:101A60001064024080B500AF0E4B1B680D4A43F472
:101A7000007313600B4B1B680A4A43F480631360C6
:101A8000084B1B68074A43F480731360032000F07F
:101A90004DF9002000F008F803F0CCFF00231846B1
:101AA00080BD00BF003C024080B582B000AF7860CE
:101AB000124B1A68124B1B7819464FF47A73B3FB1A
:101AC000F1F3B2FBF3F3184600F065F90346002B7F
:101AD00001D001230EE07B680F2B0AD80022796821
:101AE0004FF0FF3000F02DF9064A7B6813600023A9
:101AF00000E0012318460837BD4680BD84740220EB
:101B00004C0000204800002080B400AF064B1B783A
:101B10001A46064B1B681344044A136000BFBD46B7
:101B20005DF8047B704700BF4C00002078770220EE
:101B300080B400AF034B1B681846BD465DF8047BBC
:101B4000704700BF7877022080B584B000AF78601E
:101B5000FFF7EEFFB8607B68FB60FB68B3F1FF3F07
:101B600005D0094B1B781A46FB681344FB6000BF85
:101B7000FFF7DEFF0246BB68D31AFA689A42F7D82D
:101B800000BF1037BD4680BD4C00002080B485B03A
:101B900000AF78607B6803F00703FB600C4BDB68E9
:101BA000BB60BA684FF6FF031340BB60FB681A02C4
:101BB000BB68134343F0BF6343F40033BB60044A84
:101BC000BB68D36000BF1437BD465DF8047B704727
:101BD00000ED00E080B400AF044BDB681B0A03F0AB
:101BE00007031846BD465DF8047B704700ED00E032
:101BF00080B483B000AF0346FB7197F90730002B28
:101C00000BDBFB7903F01F02074997F907305B09EB
:101C1000012000FA02F241F8232000BF0C37BD4634
:101C20005DF8047B704700BF00E100E080B483B042
:101C300000AF03463960FB7197F90730002B0ADBD0
:101C40003B68DAB20C4997F907301201D2B20B4463
:101C500083F800230AE03B68DAB20849FB7903F015
:101C60000F03043B1201D2B20B441A7600BF0C37AB
:101C7000BD465DF8047B704700E100E000ED00E048
:101C800080B489B000AFF860B9607A60FB6803F097
:101C90000703FB61FB69C3F10703042B28BF04237F
:101CA000BB61FB690433062B02D9FB69033B00E0EF
:101CB00000237B614FF0FF32BB6902FA03F3DA4382
:101CC000BB681A407B699A404FF0FF317B6901FA8B
:101CD00003F3D9437B680B40134318462437BD46B2
:101CE0005DF8047B7047000080B582B000AF78607B
:101CF0007B68013BB3F1807F01D301230FE00A4AE7
:101D00007B68013B53600F214FF0FF30FFF78EFFE0
:101D1000054B00229A60044B07221A6000231846E4
:101D20000837BD4680BD00BF10E000E080B582B03E
:101D300000AF78607868FFF729FF00BF0837BD461D
:101D400080BD80B586B000AF0346B9607A60FB7392
:101D500000237B61FFF73EFF78617A68B968786994
:101D6000FFF78EFF024697F90F3011461846FFF72E
:101D70005DFF00BF1837BD4680BD80B582B000AFA3
:101D80000346FB7197F907301846FFF731FF00BF94
:101D90000837BD4680BD80B582B000AF78607868F6
:101DA000FFF7A2FF034618460837BD4680BD80B541
:101DB00082B000AF78607B68002B01D1012311E075
:101DC0007B685B79DBB2002B05D17B6800221A713E
:101DD000786803F057FE7B6802225A717B68012203
:101DE0005A71002318460837BD4680BD80B586B0BD
:101DF00000AF786000237B61FFF79AFE38617B6853
:101E0000002B01D1012399E07B68002283F8342064
:101E10007B68022283F835207B681B681A687B6820
:101E20001B6822F001021A600FE0FFF781FE0246F4
:101E30003B69D31A052B08D97B6820225A657B6839
:101E4000032283F83520032378E07B681B681B6836
:101E500003F00103002BE8D17B681B681B687B61E2
:101E60007A69384B13407B617B685A687B689B6852
:101E70001A437B68DB681A437B681B691A437B68DB
:101E80005B691A437B689B691A437B68DB691A4369
:101E90007B681B6A13437A6913437B617B685B6AC7
:101EA000042B07D17B68DA6A7B681B6B13437A6962
:101EB00013437B617B681B687A691A607B681B68C7
:101EC0005B697B617B6923F007037B617B685B6AED
:101ED0007A6913437B617B685B6A042B17D17B684B
:101EE0009B6A7A6913437B617B68DB6A002B0ED0A7
:101EF000786800F0BDF80346002B08D07B684022CC
:101F00005A657B68012283F83520012316E07B683F
:101F10001B687A695A61786800F074F80346FB60C0
:101F20007B68DB6D3F229A40FB689A607B680022E9
:101F30005A657B68012283F835200023184618373C
:101F4000BD4680BD3F8010F080B584B000AF7860A2
:101F50007B68002B01D1012350E07B6893F835307A
:101F6000DBB2022B01D1022348E07B681B681A68B0
:101F70007B681B6822F001021A607B681B680022E4
:101F80001A607B681B6800225A607B681B6800220D
:101F90009A607B681B680022DA607B681B680022FD
:101FA0001A617B681B6821225A61786800F02AF860
:101FB0000346FB607B680022DA637B6800221A64B8
:101FC0007B6800225A647B6800229A647B68002246
:101FD000DA647B6800221A657B68DB6D3F229A40D9
:101FE000FB689A607B6800225A657B68002283F850
:101FF00035207B68002283F83420002318461037F0
:10200000BD4680BD80B485B000AF78607B681B683A
:10201000DBB2103B144AA2FB03231B09FB60134AEB
:10202000FB6813441B781A467B68DA65FB68032B50
:1020300009D97B681B6823F47F7323F003031A1DFF
:102040007B689A6507E07B681B6823F47F7323F045
:1020500003037A6893657B689B6D18461437BD4609
:102060005DF8047B704700BFABAAAAAADC89000810
:1020700080B485B000AF78600023FB737B689B6AF7
:10208000BB607B689B69002B1FD1BB68032B55D8B5
:1020900001A252F823F000BFA9200008BB200008CD
:1020A000A92000083D2100087B68DB6A03F08073EB
:1020B000002B45D00123FB7342E07B68DB6AB3F160
:1020C000C07F3FD10123FB733CE07B689B69B3F584
:1020D000005F21D1BB68032B36D801A252F823F050
:1020E000F1200008F7200008F1200008092100086D
:1020F0000123FB732FE07B68DB6A03F08073002B06
:1021000024D00123FB7321E07B68DB6AB3F1C07F3D
:102110001ED10123FB731BE0BB68022B02D9032BEA
:1021200003D018E00123FB7315E07B68DB6A03F042
:102130008073002B0ED00123FB730BE000BF0AE07D
:1021400000BF08E000BF06E000BF04E000BF02E0FF
:1021500000BF00E000BFFB7B18461437BD465DF8AA
:10216000047B704780B582B000AF78607B68002B3D
:1021700001D101233BE07B6893F83930DBB2002BBF
:1021800006D17B68002283F83820786803F09CFC35
:102190007B68022283F839207B681B681B6823F464
:1021A00040317B685A687B681B680A431A607B6809
:1021B0001B685B6B23F007017B689A687B681B6870
:1021C0000A435A637B681B681B6C23F47F5323F01C
:1021D0003F037A68D1687A6812680B4313647B689E
:1021E0000022DA637B68012283F839200023184635
:1021F0000837BD4680BD80B586B002AFF860B960D3
:102200007A603B60FB6893F83830012B01D10223E0
:1022100018E0FB68012283F83820FB68022283F86B
:102220003920BB6900933B687A68B968F86800F0A8
:1022300089F9FB681B681A68FB681B6842F0010299
:102240001A60002318461037BD4680BD80B586B0A1
:1022500000AF786039600023FB607B681B681B68F7
:1022600003F00103002B56D0FFF762FC78614BE0CE
:102270007B681B685B68FB60FB6803F02103002B35
:1022800023D0FB6803F02003002B05D07B68DB6BB9
:1022900043F002027B68DA63FB6803F00103002B62
:1022A00005D07B68DB6B43F001027B68DA637B68F7
:1022B0001B6821229A607B68042283F839207B689E
:1022C000002283F838200123A5E03B68B3F1FF3FEB
:1022D0001AD0FFF72DFC02467B69D31A3A689A425E
:1022E00002D33B68002B0FD17B68DB6B43F02002ED
:1022F0007B68DA637B68032283F839207B680022DD
:1023000083F83820032386E07B681B685B6803F052
:102310000203002BACD07B681B68DB6903F0200351
:102320003B617B681B685B6A03F020033A691343D7
:102330003B613B69002B61D0FFF7FAFB786156E007
:102340007B681B685B68FB60FB6803F02903002B5C
:102350002ED0FB6803F00803002B05D07B68DB6BF5
:1023600043F004027B68DA63FB6803F02003002B70
:1023700005D07B68DB6B43F002027B68DA63FB68A5
:1023800003F00103002B05D07B68DB6B43F00102F7
:102390007B68DA637B681B6829229A607B68042269
:1023A00083F839207B68002283F83820012332E04B
:1023B0003B68B3F1FF3F1AD0FFF7BAFB02467B69D7
:1023C000D31A3A689A4202D33B68002B0FD17B683C
:1023D000DB6B43F020027B68DA637B68032283F8BF
:1023E00039207B68002283F83820032313E07B68C0
:1023F0001B685B6803F01003002BA1D07B681B688F
:1024000012229A607B68012283F839207B680022BF
:1024100083F83820002318461837BD4680BD0000D9
:1024200080B487B000AF786039607B685B68B3F5D3
:10243000403F7B6893F83830012B01D1022379E0CB
:102440007B68012283F838207B68022283F83920D8
:102450003B681B0118337A6813443B613B695A6837
:102460003B699B681B0413437B61354BFB603B69F5
:102470005B680A2B03D03B695B68092B07D13B697A
:10248000DB6803F07F437A6913437B6105E03B69B6
:10249000DB681B067A6913437B613B68002B20D104
:1024A0007B681B685A6AFB68DB4302EA03017B68AE
:1024B0001B687A690A435A627B681B683A6912682A
:1024C0009A613B695B680A2B03D03B695B68092B07
:1024D00027D13B69DA687B681B6822F07F429A62E9
:1024E0001FE07B681B68DA69FB68DB4302EA0301D3
:1024F0007B681B687A690A43DA617B681B683A6902
:1025000012681A613B695B680A2B03D03B695B6800
:10251000092B06D13B69DA687B681B6822F07F4291
:102520001A627B68012283F839207B68002283F8D5
:102530003820002318461C37BD465DF8047B7047E1
:102540000F0003FF80B48BB000AFF860B9607A6011
:102550003B60FB681B685B6C03F040413B681A04FE
:102560003B6B1A43FB681B680A435A64FB681B6891
:102570007A68DA63FB685B68B3F5403F74D1BB6887
:1025800003F07F433B62BB6803F47F03FB61BB68DE
:1025900003F47F43BB61BB68DBB27B61FB689B6874
:1025A000002B08D1BA69FB691A433B6A13437A6965
:1025B00013437B6253E0FB689B68012B06D1BA6929
:1025C000FB6913437A6913437B6248E0FB689B68AD
:1025D000022B11D1FB69DB0CFB61BB699B0ABB6160
:1025E0007B69DB087B61BB695A01FB69DB02134332
:1025F0007A6913437B6232E0FB689B68032B17D137
:102600003B6ADB0F3B62FB69DB0CFB61BB69DB0AEE
:10261000BB617B69DB087B61BB695A01FB699B027B
:102620001A433B6ADB0313437A6913437B6216E068
:102630003B6A1B0F3B62FB691B0DFB61BB691B0BFC
:10264000BB617B691B097B61BB691A01FB691B02CA
:102650001A433B6A1B0313437A6913437B62FB688B
:102660001B687A6A9A6303E0FB681B68BA68DA60E1
:1026700000BF2C37BD465DF8047B704780B489B03D
:1026800000AF7860396000237B6100233B61002349
:10269000BB610023FB6177E10122FB6902FA03F3CE
:1026A0007B613B681B687A6913403B613A697B69CF
:1026B0009A4240F066813B685B68022B03D03B681E
:1026C0005B68122B23D1FB69DA087B68083253F868
:1026D0002230BB61FB6903F007039B000F2202FA63
:1026E00003F3DB43BA691340BB613B681A69FB69BA
:1026F00003F007039B0002FA03F3BA691343BB61BB
:10270000FB69DA087B680832B96943F822107B68F4
:102710001B68BB61FB695B00032202FA03F3DB4326
:10272000BA691340BB613B685B6803F00302FB6955
:102730005B0002FA03F3BA691343BB617B68BA69B1
:102740001A603B685B68012B0BD03B685B68022B0F
:1027500007D03B685B68112B03D03B685B68122B8A
:1027600030D17B689B68BB61FB695B00032202FA86
:1027700003F3DB43BA691340BB613B68DA68FB696A
:102780005B0002FA03F3BA691343BB617B68BA6961
:102790009A607B685B68BB610122FB6902FA03F304
:1027A000DB43BA691340BB613B685B681B0903F0FC
:1027B0000102FB6902FA03F3BA691343BB617B6848
:1027C000BA695A607B68DB68BB61FB695B00032206
:1027D00002FA03F3DB43BA691340BB613B689A68B2
:1027E000FB695B0002FA03F3BA691343BB617B68C0
:1027F000BA69DA603B685B6803F08053002B00F035
:10280000C0800023FB60654B5B6C644A43F48043EB
:102810005364624B5B6C03F48043FB60FB68604A6B
:10282000FB699B08023352F82330BB61FB6903F05C
:1028300003039B000F2202FA03F3DB43BA69134040
:10284000BB617B68574A934237D07B68564A9342B4
:1028500031D07B68554A93422BD07B68544A9342CF
:1028600025D07B68534A93421FD07B68524A9342DB
:1028700019D07B68514A934213D07B68504A9342E7
:102880000DD07B684F4A934207D07B684E4A9342F3
:1028900001D1092312E00A2310E008230EE00723E8
:1028A0000CE006230AE0052308E0042306E00323E6
:1028B00004E0022302E0012300E00023FA6902F0B1
:1028C000030292009340BA691343BB613449FB6928
:1028D0009B080233BA6941F823203C4B1B68BB615B
:1028E0003B69DB43BA691340BB613B685B6803F437
:1028F0008033002B03D0BA693B691343BB61334A71
:10290000BB691360314B5B68BB613B69DB43BA69F0
:102910001340BB613B685B6803F40033002B03D0BA
:10292000BA693B691343BB61284ABB695360274BB3
:102930009B68BB613B69DB43BA691340BB613B6881
:102940005B6803F48013002B03D0BA693B6913431F
:10295000BB611E4ABB6993601C4BDB68BB613B6972
:10296000DB43BA691340BB613B685B6803F4001347
:10297000002B03D0BA693B691343BB61134ABB699F
:10298000D360FB690133FB61FB690F2B7FF684AEDB
:1029900000BF2437BD465DF8047B70470038024015
:1029A00000380140000002400004024000080240DC
:1029B000000C0240001002400014024000180240C7
:1029C000001C02400020024000240240003C014064
:1029D00080B487B000AF7860396000233B6100238A
:1029E000FB600023BB6000237B61D9E001227B698F
:1029F00002FA03F33B613A683B691340FB60FA68F3
:102A00003B699A4240F0C9806A4A7B699B0802335D
:102A100052F82330BB607B6903F003039B000F2255
:102A200002FA03F3BA681340BB607B68624A9342C0
:102A300037D07B68614A934231D07B68604A9342C9
:102A40002BD07B685F4A934225D07B685E4A9342D5
:102A50001FD07B685D4A934219D07B685C4A9342E1
:102A600013D07B685B4A93420DD07B685A4A9342ED
:102A700007D07B68594A934201D1092312E00A2307
:102A800010E008230EE007230CE006230AE00523EC
:102A900008E0042306E0032304E0022302E001230C
:102AA00000E000237A6902F0030292009340BA68C2
:102AB0009A4232D17B6903F003039B000F2202FA92
:102AC00003F3BB603B4A7B699B08023352F8231037
:102AD000BB68DA4337487B699B080A40023340F8F9
:102AE00023203F4B1A68FB68DB433D4913400B60D2
:102AF0003B4B5A68FB68DB43394913404B60384B0A
:102B00009A68FB68DB43364913408B60344BDA68C4
:102B1000FB68DB4332491340CB607B681A687B69F2
:102B20005B00032101FA03F3DB431A407B681A6060
:102B30007B69DA087B68083253F822107B6903F05E
:102B400007039B000F2202FA03F3DB437A69D208E2
:102B500019407B68083243F822107B689A687B69C9
:102B60005B00032101FA03F3DB431A407B689A60A0
:102B70007B685A6801217B6901FA03F3DB431A4041
:102B80007B685A607B68DA687B695B00032101FA25
:102B900003F3DB431A407B68DA607B6901337B61B6
:102BA0007B690F2B7FF622AF00BF1C37BD465DF857
:102BB000047B7047003801400000024000040240DE
:102BC00000080240000C02400010024000140240C5
:102BD00000180240001C0240002002400024024075
:102BE000003C014080B483B000AF78600B467B802E
:102BF00013467B707B78002B03D07A887B689A61C0
:102C000003E07B881A047B689A6100BF0C37BD46DD
:102C10005DF8047B7047000080B582B000AF0346CA
:102C2000FB80084B5A69FB881340002B06D0054AED
:102C3000FB885361FB88184600F006F800BF083790
:102C4000BD4680BD003C014080B483B000AF034668
:102C5000FB8000BF0C37BD465DF8047B7047000069
:102C600080B584B000AF78607B68002B01D1012370
:102C70000FE17B6893F83D30DBB2002B06D17B6817
:102C8000002283F83C20786802F040FF7B68242211
:102C900083F83D207B681B681A687B681B6822F0FC
:102CA00001021A6001F0A8F8F8607B685B687B4A53
:102CB000934207D8FB687A4A934294BF01230023CA
:102CC000DBB206E0FB68774A934294BF01230023FE
:102CD000DBB2002B01D00123DBE0FB68724AA2FBD0
:102CE00003239B0CBB607B681B685B6823F03F0180
:102CF0007B681B68BA680A435A607B681B681B6A5A
:102D000023F03F017B685B68644A934202D8BB684A
:102D1000013309E0BB684FF4967202FB03F3634A88
:102D2000A2FB03239B0901337A6812680B431362E9
:102D30007B681B68DB6923F44F4222F0FF027B684B
:102D40005B6856498B420DD8FB68591E7B685B68EF
:102D50005B00B1FBF3F30133C3F30B03042B38BF68
:102D600004234FE07B689B68002B11D1FB68581E41
:102D70007B6859680B465B000B44B0FBF3F30133EF
:102D8000C3F30B03002B0CBF01230023DBB212E0C3
:102D9000FB68581E7B6859680B469B000B449900E2
:102DA0000B44B0FBF3F30133C3F30B03002B0CBF55
:102DB00001230023DBB2002B01D0012322E07B683A
:102DC0009B68002B0ED1FB68581E7B6859680B4628
:102DD0005B000B44B0FBF3F30133C3F30B0343F489
:102DE00000430FE0FB68581E7B6859680B469B0048
:102DF0000B4499000B44B0FBF3F30133C3F30B0313
:102E000043F44043796809681343CB617B681B68CE
:102E10001B6823F0C0017B68DA697B681B6A1A4370
:102E20007B681B680A431A607B681B689B6823F4F5
:102E3000034323F0FF037A6811697A68D26811436B
:102E40007A6812680B4393607B681B68DB6823F029
:102E5000FF017B685A697B689B691A437B681B6822
:102E60000A43DA607B681B681A687B681B6842F05B
:102E700001021A607B6800221A647B68202283F8B2
:102E80003D207B6800221A637B68002283F83E2085
:102E9000002318461037BD4680BD00BFA086010044
:102EA0007F841E00FF083D0083DE1B43D34D62106C
:102EB00080B483B000AF786039607B6893F83D30B0
:102EC000DBB2202B29D17B68242283F83D207B684C
:102ED0001B681A687B681B6822F001021A607B6815
:102EE0001B685A6A7B681B6822F010025A627B6872
:102EF0001B68596A7B681B683A680A435A627B6898
:102F00001B681A687B681B6842F001021A607B68C4
:102F1000202283F83D20002300E0022318460C37CE
:102F2000BD465DF8047B704780B485B000AF786023
:102F300039600023FB817B6893F83D30DBB2202BA6
:102F40002AD17B68242283F83D207B681B681A689D
:102F50007B681B6822F001021A607B681B685B6A51
:102F6000FB81FB8923F00F03FB813B689AB2FB894D
:102F70001343FB817B681B68FA895A627B681B6874
:102F80001A687B681B6842F001021A607B68202285
:102F900083F83D20002300E0022318461437BD4685
:102FA0005DF8047B7047000080B584B000AF7860A6
:102FB0007B68002B01D10123BFE07B6893F8A1302F
:102FC000DBB2002B06D17B68002283F8A020786852
:102FD00002F006FE7B68022283F8A1207B681B6852
:102FE0009A697B681B6822F070429A617B681B6853
:102FF00099697B685A687B689B681A437B68DB68C1
:103000001A437B681B691A437B681B680A439A61F1
:103010007B681B6899687B681A684A4B0B40936011
:103020007B685B691B04FB607B681B6899687B6835
:103030009A69FB681A437B681B680A439A607B683D
:103040001B68D9687B681A683E4B0B40D3607B686D
:10305000DB691B04FB607B681B68D9687B681A6AA4
:10306000FB681A437B681B680A43DA607B681B684D
:1030700019697B681A68334B0B4013617B685B6A84
:103080001B04FB607B681B6819697B689A6AFB6894
:103090001A437B681B680A431A617B681B6859697D
:1030A0007B681A68274B0B4053617B68DB6A1B0403
:1030B000FB607B681B6859697B681A6BFB681A4365
:1030C0007B681B680A435A617B6893F835301B02A2
:1030D000FB607B6893F836301B04BB607B681B6821
:1030E000DA6A7B681B6802F07F42DA627B681B68E1
:1030F000D96ABA68FB6813437A6892F834201A4395
:103100007B681B680A43DA627B681B685A6B7B68C2
:103110001B6842F006025A637B681B689A697B68E9
:103120001B6842F001029A617B680022C3F8A42068
:103130007B68012283F8A120002318461037BD4682
:1031400080BD00BF00F800F0B0B584B000AFF860FB
:10315000B9607A60FB6893F8A030012B01D102239B
:103160002CE0FB68012283F8A020FB68022283F890
:10317000A120FA687B68342101FB03F3134403F1B7
:103180003802BB6814461D460FCD0FC40FCD0FC4C7
:103190000FCD0FC42B6823607A68B968F86800F017
:1031A0003BF8FB681B6801225A62FB68012283F826
:1031B000A120FB68002283F8A020002318461037C6
:1031C000BD46B0BD80B483B000AF78607B6893F833
:1031D000A030012B01D1022316E07B68012283F885
:1031E000A0207B68022283F8A1200A4B9B69094A30
:1031F00043F4803393617B68012283F8A1207B68CC
:10320000002283F8A020002318460C37BD465DF845
:10321000047B70470068014080B489B000AFF8605B
:10322000B9607A60BB685A68FB681B68DB681B0C76
:10323000C3F30B0313441B04FB61FB681B681A46B2
:103240007B68DB01134484335B68FA6812681146BB
:103250007A68D2010A44843203F470435360BB6835
:103260001A68FB681B68DB681B0CC3F30B03134471
:103270005A1CFB681B6819467B68DB010B448433CE
:103280001946FB6913434B60BB68DA68FB681B682F
:10329000DB68C3F30A0313441B04FB61FB681B6870
:1032A0001A467B68DB01134484339B68FA68126812
:1032B00011467A68D2010A44843203F47043936061
:1032C000BB689A68FB681B68DB68C3F30A03134496
:1032D0005A1CFB681B6819467B68DB010B4484336E
:1032E0001946FB6913438B60FB681B681A467B68B1
:1032F000DB01134484331B69FA68126811467A684B
:10330000D2010A44843223F007031361FB681B686F
:103310001A467B68DB01134484331A46BB681B6979
:103320001361BB6893F831301B02FB61BB6893F8F3
:1033300032301B04BB61BB689B691B067B61FB6869
:103340001B681A467B68DB01134484339B69FB6866
:103350001B681A467B68DB01134484331A4600233A
:103360009361BB6893F830301A46FB691A43BB6916
:103370001A43FB681B6819467B68DB010B448433E6
:1033800019467B6913438B61FB681B681A467B688F
:10339000DB01134484335B69FA68126811467A686A
:1033A000D2010A44843223F0FF035361FB681B6897
:1033B0001A467B68DB01134484331A46BB685B6999
:1033C0005361FB681B681A467B68DB011344843336
:1033D000DB69FA68126811467A68D2010A448432BD
:1033E00023F4E06323F00703D361BB68DA69BB68A9
:1033F0001B6AF968096808467968C9010144843183
:103400001343CB61FB681B681A467B68DB011344DE
:1034100084339B6AFB681B681A467B68DB01134494
:1034200084331A4600239362FB681B681A467B6844
:10343000DB01134484331A46BB685B6A9362BB6842
:103440001B69002B02D10423FB611BE0BB681B69D5
:10345000012B02D10323FB6114E0BB681B69042B21
:103460000BD0BB681B69022B07D0BB681B69032B01
:1034700003D0BB681B69072B02D10223FB6101E06B
:103480000123FB61FB681B681A467B68DB01134460
:103490008433DB6AFA68126811467A68D2010A44FA
:1034A000843203F0E023D362BB689B6AFA6902FBB3
:1034B00003F31A04BB685968BB681B68CB1AF96927
:1034C00001FB03F30333F968096808467968C90109
:1034D000014484311343CB62FB681B681A467B6846
:1034E000DB01134484331B6BFA68126811467A6857
:1034F000D2010A44843223F4FF6323F007031363E9
:10350000FB681B681A467B68DB01134484331A4648
:10351000BB68DB6A1363FB681B681A467B68DB01C8
:10352000134484331B68FA68126811467A68D20122
:103530000A44843243F00103136000BF2437BD46C0
:103540005DF8047B7047000080B582B000AF0023B7
:103550007B6000233B60204B1B6C1F4A43F0805371
:1035600013641D4B1B6C03F080533B603B681B4B8B
:1035700001221A60FEF7DCFA786009E0FEF7D8FA5B
:1035800002467B68D31AB3F57A7F01D903231FE083
:10359000134B5B6803F48033B3F5803FEED1114BDE
:1035A00001221A60FEF7C4FA786009E0FEF7C0FA5B
:1035B00002467B68D31AB3F57A7F01D9032307E06B
:1035C000074B5B6803F40033B3F5003FEED10023F3
:1035D00018460837BD4680BD0038024040000E4204
:1035E0000070004044000E4280B586B000AF7860A5
:1035F0007B68002B01D101232DE27B681B6803F05F
:103600000103002B75D0A34B9B6803F00C03042B24
:103610000CD0A04B9B6803F00C03082B12D19D4BE0
:103620005B6803F48003B3F5800F0BD1994B1B68E3
:1036300003F40033002B5BD07B685B68002B57D111
:10364000012308E27B685B68B3F5803F06D1914BAC
:103650001B68904A43F4803313601DE07B685B680D
:10366000B3F5A02F0CD18B4B1B688A4A43F48023FF
:103670001360884B1B68874A43F4803313600BE068
:10368000844B1B68834A23F480331360814B1B688F
:10369000804A23F4802313607B685B68002B13D07F
:1036A000FEF746FA386108E0FEF742FA02463B6947
:1036B000D31A642B01D90323CDE1764B1B6803F4A5
:1036C0000033002BF0D014E0FEF732FA386108E046
:1036D000FEF72EFA02463B69D31A642B01D9032365
:1036E000B9E16C4B1B6803F40033002BF0D100E010
:1036F00000BF7B681B6803F00203002B63D0654B9F
:103700009B6803F00C03002B0BD0624B9B6803F00B
:103710000C03082B1CD15F4B5B6803F48003002B68
:1037200016D15C4B1B6803F00203002B05D07B68AD
:10373000DB68012B01D001238DE1564B1B6823F080
:10374000F8027B681B69DB00524913430B603AE0C7
:103750007B68DB68002B20D04F4B01221A60FEF7FC
:10376000E7F9386108E0FEF7E3F902463B69D31A4E
:10377000022B01D903236EE1464B1B6803F00203C1
:10378000002BF0D0434B1B6823F0F8027B681B69C9
:10379000DB00404913430B6015E03F4B00221A60E9
:1037A000FEF7C6F9386108E0FEF7C2F902463B6948
:1037B000D31A022B01D903234DE1364B1B6803F0CA
:1037C0000203002BF0D17B681B6803F00803002B79
:1037D00030D07B685B69002B16D0304B01221A6019
:1037E000FEF7A6F9386108E0FEF7A2F902463B6948
:1037F000D31A022B01D903232DE1264B5B6F03F073
:103800000203002BF0D015E0244B00221A60FEF7D3
:103810008FF9386108E0FEF78BF902463B69D31A4D
:10382000022B01D9032316E11A4B5B6F03F002034D
:10383000002BF0D17B681B6803F00403002B00F021
:10384000A0800023FB75134B1B6C03F08053002BEF
:103850000FD10023FB600F4B1B6C0E4A43F08053CB
:1038600013640C4B1B6C03F08053FB60FB6801235B
:10387000FB750B4B1B6803F48073002B21D1084BA5
:103880001B68074A43F480731360FEF751F93861EF
:1038900011E000BF0038024000004742800E47425E
:1038A00000700040FEF744F902463B69D31A022B30
:1038B00001D90323CFE06A4B1B6803F48073002B0C
:1038C000F0D07B689B68012B06D1664B1B6F654A65
:1038D00043F0010313671CE07B689B68052B0CD148
:1038E000604B1B6F5F4A43F0040313675D4B1B6F14
:1038F0005C4A43F0010313670BE05A4B1B6F594AB4
:1039000023F001031367574B1B6F564A23F0040340
:1039100013677B689B68002B15D0FEF709F93861A7
:103920000AE0FEF705F902463B69D31A41F28832F4
:10393000934201D903238EE04A4B1B6F03F002032D
:10394000002BEED014E0FEF7F3F838610AE0FEF742
:10395000EFF802463B69D31A41F28832934201D90B
:10396000032378E03F4B1B6F03F00203002BEED1E3
:10397000FB7D012B05D13B4B1B6C3A4A23F0805356
:1039800013647B689B69002B64D0364B9B6803F003
:103990000C03082B5CD07B689B69022B41D1324B16
:1039A00000221A60FEF7C4F8386108E0FEF7C0F89C
:1039B00002463B69D31A022B01D903234BE0294B62
:1039C0001B6803F00073002BF0D17B68DA697B6819
:1039D0001B6A1A437B685B6A9B011A437B689B6A7C
:1039E0005B08013B1B041A437B68DB6A1B061D490D
:1039F00013434B601C4B01221A60FEF799F83861A3
:103A000008E0FEF795F802463B69D31A022B01D96C
:103A1000032320E0134B1B6803F00073002BF0D04E
:103A200018E0114B00221A60FEF782F8386108E0B6
:103A3000FEF77EF802463B69D31A022B01D9032315
:103A400009E0084B1B6803F00073002BF0D101E084
:103A5000012300E0002318461837BD4680BD00BF93
:103A600000700040003802406000474280B584B0DA
:103A700000AF786039607B68002B01D10123CAE078
:103A8000674B1B6803F00F033A689A420CD9644BEA
:103A90003A68D2B21A70624B1B6803F00F033A689F
:103AA0009A4201D00123B6E07B681B6803F0020351
:103AB000002B20D07B681B6803F00403002B05D08B
:103AC000584B9B68574A43F4E05393607B681B68EC
:103AD00003F00803002B05D0524B9B68514A43F476
:103AE000604393604F4B9B6823F0F0027B689B68B8
:103AF0004C4913438B607B681B6803F00103002B68
:103B000044D07B685B68012B07D1464B1B6803F4EC
:103B10000033002B19D101237DE07B685B68022B09
:103B200003D07B685B68032B07D13E4B1B6803F017
:103B30000073002B09D101236DE03A4B1B6803F0A1
:103B40000203002B01D1012365E0364B9B6823F073
:103B500003027B685B68334913438B60FDF7E8FF22
:103B6000F8600AE0FDF7E4FF0246FB68D31A41F271
:103B70008832934201D903234DE02A4B9B6803F01E
:103B80000C027B685B689B009A42EBD1244B1B685C
:103B900003F00F033A689A420CD2214B3A68D2B232
:103BA0001A701F4B1B6803F00F033A689A4201D04A
:103BB000012330E07B681B6803F00403002B08D06E
:103BC000184B9B6823F4E0527B68DB68154913436C
:103BD0008B607B681B6803F00803002B09D0114B36
:103BE0009B6823F460427B681B69DB000D4913432B
:103BF0008B6000F01DF801460A4B9B681B0903F01F
:103C00000F03094AD35C21FA03F3084A136000202A
:103C1000FDF74AFF002318461037BD4680BD00BFA0
:103C2000003C024000380240E4890008847402200D
:103C3000F0B585B000AF00237B600023FB6000235C
:103C40003B600023BB60634B9B6803F00C03042BB9
:103C500007D0082B08D0002B40F0B4805E4BBB602F
:103C6000B3E05E4BBB60B0E05A4B5B6803F03F03D0
:103C70007B60584B5B6803F48003002B4AD0554BA4
:103C80005B689B094FF0000440F2FF114FF0000207
:103C900003EA010504EA0206294632464FF0000312
:103CA0004FF00004540144EAD1644B011946224606
:103CB000491B62EB06024FF000034FF00004940131
:103CC00044EA91648B015B1A64EB02044FF000013B
:103CD0004FF00002E20042EA5372D9000B4614464C
:103CE0005B1944EB06044FF000014FF00002620242
:103CF00042EAD35259020B461446184621467B68C5
:103D00004FF000041A462346FCF7C2FA03460C465D
:103D1000FB6049E02F4B5B689B094FF0000440F2C9
:103D2000FF114FF0000203EA010504EA02062946EA
:103D300032464FF000034FF00004540144EAD164CE
:103D40004B0119462246491B62EB06024FF0000365
:103D50004FF00004940144EA91648B015B1A64EB18
:103D600002044FF000014FF00002E20042EA5372F9
:103D7000D9000B4614465B1944EB06044FF00001D2
:103D80004FF00002A20242EA935299020B461446F7
:103D9000184621467B684FF000041A462346FCF77C
:103DA00077FA03460C46FB600A4B5B681B0C03F07A
:103DB000030301335B003B60FA683B68B2FBF3F33B
:103DC000BB6002E0044BBB6000BFBB681846143701
:103DD000BD46F0BD003802400024F40000127A0015
:103DE00080B400AF034B1B681846BD465DF8047BEA
:103DF000704700BF8474022080B500AFFFF7F0FF6A
:103E00000146054B9B689B0A03F00703034AD35CFA
:103E100021FA03F3184680BD00380240F4890008F7
:103E200080B586B000AF786000237B6100233B61E2
:103E30007B681B6803F00103002B05D17B681B68BE
:103E400003F00203002B61D0A34B00221A60FDF7A0
:103E50006FFE786108E0FDF76BFE02467B69D31ABE
:103E6000022B01D9032377E19C4B1B6803F000630D
:103E7000002BF0D17B681B6803F00103002B09D0F5
:103E80007B685B689A017B689B681B0793491343B7
:103E9000C1F884307B681B6803F00203002B1FD03D
:103EA0008E4BD3F884301B0F03F007033B617B6814
:103EB0005B689A017B68DB681B061A433B691B073A
:103EC00086491343C1F88430844BD3F88C3023F0F7
:103ED0001F027B68DB69013B80491343C1F88C30CA
:103EE0007D4B01221A60FDF723FE786108E0FDF7A3
:103EF0001FFE02467B69D31A022B01D903232BE153
:103F0000764B1B6803F00063002BF0D07B681B68C6
:103F100003F00403002B05D17B681B6803F0080342
:103F2000002B79D06E4B00221A60FDF701FE7861FC
:103F300008E0FDF7FDFD02467B69D31A022B01D98B
:103F4000032309E1654B1B6803F00053B3F1005FE5
:103F5000EFD07B681B6803F00403002B20D05F4B7D
:103F6000D3F888301B0F03F007033B617B681B69A4
:103F70009A017B685B691B061A433B691B0757491B
:103F80001343C1F88830554BD3F88C3023F4F852E2
:103F90007B681B6A013B1B0250491343C1F88C30FC
:103FA0007B681B6803F00803002B1ED04B4BD3F833
:103FB00088301B0E03F00F033B617B681B699A017D
:103FC0003B691B061A437B689B691B0743491343E4
:103FD000C1F88830414BD3F88C3023F440327B68F1
:103FE0005B6A3E491343C1F88C303D4B01221A6095
:103FF000FDF79EFD786108E0FDF79AFD02467B69BA
:10400000D31A022B01D90323A6E0344B1B6803F01B
:104010000053B3F1005FEFD17B681B6803F020030E
:10402000002B00F08D800023FB602C4B1B6C2B4A77
:1040300043F080531364294B1B6C03F08053FB60E7
:10404000FB68284B1B68274A43F480731360FDF715
:104050006FFD786108E0FDF76BFD02467B69D31ABE
:10406000022B01D9032377E01E4B1B6803F48073F6
:10407000002BF0D0194B1B6F03F440733B613B697D
:10408000002B39D07B689B6A03F440733A699A42EB
:1040900032D0124B1B6F23F440733B61124B012251
:1040A0001A60114B00221A600C4A3B6913670B4BD4
:1040B0001B6F03F00103012B1ED1FDF739FD786161
:1040C00014E0FDF735FD02467B69D31A41F28832D0
:1040D00093420BD903233FE0680047420038024077
:1040E0007000474200700040400E47421C4B1B6F5F
:1040F00003F00203002BE4D07B689B6A03F4407357
:10410000B3F5407F0DD1164B9B6823F4F8127B6802
:104110009B6A23F0704323F44073114913438B606F
:1041200005E00F4B9B680E4A23F4F81393600C4B89
:104130001A6F7B689B6AC3F30B03094913430B6730
:104140007B681B6803F01003002B04D07B6893F896
:104150002C20044B1A60002318461837BD4680BD3A
:1041600000380240E011474280B582B000AF78606D
:104170007B68002B01D101231CE07B685B79DBB2FB
:10418000002B05D17B6800221A71786801F036FE99
:104190007B6802225A717B681B681A687B681B68FF
:1041A00042F004021A607B6801225A717B68002287
:1041B0009A60002318460837BD4680BD80B584B09C
:1041C00000AF786039600023FB737B681B79012B9B
:1041D00001D102233DE07B6801221A717B685B7983
:1041E000DBB2012B2CD17B6802225A71FDF7A0FCB7
:1041F000B86011E0FDF79CFC0246BB68D31A022BA5
:104200000AD97B6801225A717B6802229A607B6816
:1042100000221A7101231CE07B681B685B6803F0B5
:104220000103012BE6D17B681B689A687B68DA6022
:104230007B68DA683B681A607B6801225A7104E087
:104240007B6804229A600123FB737B6800221A7149
:10425000FB7B18461037BD4680BD80B582B000AFED
:1042600078607B680C3319467868FFF7A7FF034630
:10427000002B02D17B68DB6800E00023184608377A
:10428000BD4680BD80B582B000AF786039607B6884
:10429000002B01D1012325E07B6893F82C30DBB2A1
:1042A000002B06D17B68002283F82D20786801F06E
:1042B000BFFE7B68022283F82C207B681A687B682B
:1042C00004331946104600F0E7FD7B6818687B68E8
:1042D0005B681A46396800F052FE7B68012283F859
:1042E0002C20002318460837BD4680BD80B584B019
:1042F00000AFF860B9607A60FB6893F82C30DBB2ED
:10430000022B01D1022318E0FB68022283F82C2043
:10431000FB681B687A68B968184600F0AFFEBB6896
:104320001B68022B04D1FB68052283F82C2003E0D4
:10433000FB68012283F82C20002318461037BD4665
:1043400080BD80B582B000AF786039607B6893F83B
:104350002C30DBB2022B01D102230EE07B6802225B
:1043600083F82C207B681B683968184600F0C2FE71
:104370007B68012283F82C20002318460837BD46AD
:1043800080BD80B582B000AF78607B68002B01D122
:10439000012356E07B6800229A627B6893F85130D3
:1043A000DBB2002B06D17B68002283F850207868AE
:1043B00001F046FD7B68022283F851207B681B6870
:1043C0001A687B681B6822F040021A607B685A6892
:1043D0007B689B681A437B68DB681A437B681B69B0
:1043E0001A437B685B691A437B689B6903F400731B
:1043F0001A437B68DB691A437B681B6A42EA030144
:104400007B689A6A7B681B680A431A607B689B69B1
:104410001B0C03F004017B685A6A7B681B680A4323
:104420005A607B681B68DA697B681B6822F400624B
:10443000DA617B6800225A657B68012283F851208B
:10444000002318460837BD4680BD80B582B000AF56
:1044500078607B68002B01D101231AE07B6802227F
:1044600083F851207B681B681A687B681B6822F000
:1044700040021A60786801F02BFD7B6800225A65C3
:104480007B68002283F851207B68002283F850204B
:10449000002318460837BD4680BD80B588B000AF00
:1044A000F860B9603B601346FB800023FB77FB6834
:1044B00093F85030012B01D102231EE1FB68012249
:1044C00083F85020FDF734FBB861FB88FB82FB6862
:1044D00093F85130DBB2012B02D00223FB7703E1CA
:1044E000BB68002B02D0FB88002B02D10123FB7795
:1044F000FAE0FB68032283F85120FB6800225A652A
:10450000FB68BA681A63FB68FA889A86FB68FA88BF
:10451000DA86FB6800229A63FB6800229A87FB68B0
:104520000022DA87FB6800225A64FB6800221A64C2
:10453000FB689B68B3F5004F07D1FB681B681A68DE
:10454000FB681B6842F480421A60FB681B681B68AA
:1045500003F04003402B07D0FB681B681A68FB6818
:104560001B6842F040021A60FB68DB68B3F5006F1D
:104570004BD1FB685B68002B02D0FB8A012B3ED13C
:10458000FB681B6B1A88FB681B68DA60FB681B6B97
:104590009A1CFB681A63FB68DB8E9BB2013B9AB2E4
:1045A000FB68DA862BE0FB681B689B6803F002035C
:1045B000022B12D1FB681B6B1A88FB681B68DA6040
:1045C000FB681B6B9A1CFB681A63FB68DB8E9BB253
:1045D000013B9AB2FB68DA8611E0FDF7A9FA0246C0
:1045E000BB69D31A3A689A4203D83B68B3F1FF3FDC
:1045F00002D13B68002B02D10323FB7774E0FB68F8
:10460000DB8E9BB2002BCED14CE0FB685B68002BAD
:1046100002D0FB8A012B40D1FB681A6BFB681B6838
:104620000C3312781A70FB681B6B5A1CFB681A63F8
:10463000FB68DB8E9BB2013B9AB2FB68DA862CE00A
:10464000FB681B689B6803F00203022B13D1FB6815
:104650001A6BFB681B680C3312781A70FB681B6BB3
:104660005A1CFB681A63FB68DB8E9BB2013B9AB253
:10467000FB68DA8611E0FDF75BFA0246BB69D31AE4
:104680003A689A4203D83B68B3F1FF3F02D13B68D6
:10469000002B02D10323FB7726E0FB68DB8E9BB265
:1046A000002BCDD1BA693968F86800F0B3FB034636
:1046B000002B02D0FB6820225A65FB689B68002B08
:1046C0000AD100233B61FB681B68DB683B61FB6828
:1046D0001B689B683B613B69FB685B6D002B02D0EC
:1046E0000123FB7700E000BFFB68012283F8512023
:1046F000FB68002283F85020FB7F18462037BD4618
:1047000080BD80B588B002AFF860B9603B601346E9
:10471000FB800023FB75FB685B68B3F5827F12D1D9
:10472000FB689B68002B0ED1FB68042283F85120A4
:10473000FA883B6800931346BA68B968F86800F0D5
:10474000E9F80346E2E0FB6893F85030012B01D111
:104750000223DBE0FB68012283F85020FDF7E8F933
:104760003861FB6893F85130DBB2012B02D0022391
:10477000FB75C2E0BB68002B02D0FB88002B02D186
:104780000123FB75B9E0FB68042283F85120FB6824
:1047900000225A65FB68BA689A63FB68FA889A87B0
:1047A000FB68FA88DA87FB6800221A63FB6800223C
:1047B0009A86FB680022DA86FB6800221A64FB688E
:1047C00000225A64FB689B68B3F5004F07D1FB6871
:1047D0001B681A68FB681B6822F480421A60FB6839
:1047E0001B681B6803F04003402B07D0FB681B6865
:1047F0001A68FB681B6842F040021A60FB68DB68BD
:10480000002B62D12EE0FB681B689B6803F001035C
:10481000012B15D1FB681B6803F10C02FB689B6B35
:104820001278D2B21A70FB689B6B5A1CFB689A63B1
:10483000FB68DB8F9BB2013B9AB2FB68DA8711E021
:10484000FDF776F902463B69D31A3A689A4203D8D3
:104850003B68B3F1FF3F02D13B68002B02D1032339
:10486000FB754AE0FB68DB8F9BB2002BCBD131E0BC
:10487000FB681B689B6803F00103012B13D1FB68E5
:104880001B68DA68FB689B6B92B21A80FB689B6BB3
:104890009A1CFB689A63FB68DB8F9BB2013B9AB260
:1048A000FB68DA8711E0FDF743F902463B69D31A4A
:1048B0003A689A4203D83B68B3F1FF3F02D13B68A4
:1048C000002B02D10323FB7517E0FB68DB8F9BB243
:1048D000002BCDD13A693968F86800F035FA034603
:1048E000002B02D0FB6820225A65FB685B6D002B11
:1048F00002D00123FB7500E000BFFB68012283F8B2
:104900005120FB68002283F85020FB7D18461837A1
:10491000BD4680BD80B58CB000AFF860B9607A60EC
:104920007B800123FB62002387F82B30FB6893F820
:104930005030012B01D102238AE1FB68012283F868
:104940005020FDF7F5F87862FB6893F8513087F84E
:104950002330FB685B68FB617B887B8397F823309F
:10496000012B0FD0FB69B3F5827F07D1FB689B68F1
:10497000002B03D197F82330042B03D0022387F8B0
:104980002B305BE1BB68002B05D07B68002B02D08D
:104990007B88002B03D1012387F82B304EE1FB6885
:1049A00093F85130DBB2042B03D0FB68052283F867
:1049B0005120FB6800225A65FB687A689A63FB689D
:1049C0007A88DA87FB687A889A87FB68BA681A63FC
:1049D000FB687A88DA86FB687A889A86FB68002208
:1049E0001A64FB6800225A64FB681B681B6803F0AA
:1049F0004003402B07D0FB681B681A68FB681B68E4
:104A000042F040021A60FB68DB68B3F5006F78D1B2
:104A1000FB685B68002B02D07B8B012B66D1FB68A7
:104A20001B6B1A88FB681B68DA60FB681B6B9A1C9F
:104A3000FB681A63FB68DB8E9BB2013B9AB2FB6892
:104A4000DA8653E0FB681B689B6803F00203022BC5
:104A50001BD1FB68DB8E9BB2002B16D0FB6A012BAF
:104A600013D1FB681B6B1A88FB681B68DA60FB6854
:104A70001B6B9A1CFB681A63FB68DB8E9BB2013BC5
:104A80009AB2FB68DA860023FB62FB681B689B68AE
:104A900003F00103012B19D1FB68DB8F9BB2002BC4
:104AA00014D0FB681B68DA68FB689B6B92B21A80B3
:104AB000FB689B6B9A1CFB689A63FB68DB8F9BB25D
:104AC000013B9AB2FB68DA870123FB62FDF730F8FD
:104AD00002467B6AD31ABA6B9A4207D8BB6BB3F112
:104AE000FF3F03D0032387F82B30A7E0FB68DB8E62
:104AF0009BB2002BA6D1FB68DB8F9BB2002BA1D110
:104B00007CE0FB685B68002B02D07B8B012B6BD1B8
:104B1000FB681A6BFB681B680C3312781A70FB6811
:104B20001B6B5A1CFB681A63FB68DB8E9BB2013B54
:104B30009AB2FB68DA8657E0FB681B689B6803F053
:104B40000203022B1CD1FB68DB8E9BB2002B17D01B
:104B5000FB6A012B14D1FB681A6BFB681B680C33D2
:104B600012781A70FB681B6B5A1CFB681A63FB688F
:104B7000DB8E9BB2013B9AB2FB68DA860023FB62B4
:104B8000FB681B689B6803F00103012B19D1FB68CC
:104B9000DB8F9BB2002B14D0FB681B68DA68FB68C4
:104BA0009B6BD2B21A70FB689B6B5A1CFB689A63B2
:104BB000FB68DB8F9BB2013B9AB2FB68DA8701236B
:104BC000FB62FCF7B5FF02467B6AD31ABA6B9A42C6
:104BD00003D8BB6BB3F1FF3F02D1BB6B002B03D1FA
:104BE000032387F82B3029E0FB68DB8E9BB2002B78
:104BF000A2D1FB68DB8F9BB2002B9DD17A6AB96B87
:104C0000F86800F007F90346002B06D0012387F867
:104C10002B30FB6820225A6510E0FB689B68002B54
:104C20000BD100237B61FB681B68DB687B61FB6841
:104C30001B689B687B617B6900E000BFFB68012209
:104C400083F85120FB68002283F8502097F82B301E
:104C500018463037BD4680BD80B483B000AF786061
:104C60007B6893F85130DBB218460C37BD465DF8CF
:104C7000047B704780B584B000AFF860B9603B60DA
:104C80001346FB714CE03B68B3F1FF3F48D0FCF7A3
:104C90004FFF0246BB69D31A3A689A4202D93B6871
:104CA000002B3DD1FB681B685A68FB681B6822F02B
:104CB000E0025A60FB685B68B3F5827F11D1FB6844
:104CC0009B68B3F5004F04D0FB689B68B3F5806F19
:104CD00007D1FB681B681A68FB681B6822F040025A
:104CE0001A60FB689B6AB3F5005F0FD1FB681B6815
:104CF0001A68FB681B6822F400521A60FB681B6884
:104D00001A68FB681B6842F400521A60FB680122B3
:104D100083F85120FB68002283F8502003230FE022
:104D2000FB681B689A68BB681340BA689A420CBF5C
:104D300001230023DBB21A46FB799A42A3D1002358
:104D400018461037BD4680BD80B586B002AFF8600A
:104D5000B9607A60FB685B68B3F5827F11D1FB684C
:104D60009B68B3F5004F04D0FB689B68B3F5806F78
:104D700007D1FB681B681A68FB681B6822F04002B9
:104D80001A60FB685B68B3F5827F2AD1FB689B6879
:104D9000B3F5806F12D07B680093BB68002280213E
:104DA000F868FFF767FF0346002B2DD0FB685B6DAB
:104DB00043F02002FB685A65032326E07B680093DA
:104DC000BB6800220121F868FFF754FF0346002B5F
:104DD0001AD0FB685B6D43F02002FB685A65032321
:104DE00013E07B680093BB6800220121F868FFF79D
:104DF00041FF0346002B07D0FB685B6D43F02002A8
:104E0000FB685A65032300E0002318461037BD46AF
:104E100080BD000080B588B002AFF860B9607A60EC
:104E20001B4B1B681B4AA2FB03235B0D4FF47A72DA
:104E300002FB03F37B61FB685B68B3F5827F12D1F1
:104E40007B680093BB6800228021F868FFF712FF9F
:104E50000346002B16D0FB685B6D43F02002FB6815
:104E60005A6503230FE07B69002B0AD07B69013B65
:104E70007B61FB681B689B6803F08003802BF2D08A
:104E800000E000BF002318461837BD4680BD00BFB4
:104E900084740220819F5E1680B485B000AF786074
:104EA00039600023FB600023BB603B681B68012B5B
:104EB00029D07B681B68FB60FB6823F4FF4323F069
:104EC0007F03FB603B685A683B689B681A433B68FA
:104ED000DB681A433B681B691A433B685B691A43EA
:104EE0003B689B691A433B68DB691A433B681B6A52
:104EF0001A433B685B6A1343FA681343FB607B68A1
:104F0000FA681A6034E07B681B68FB60FB6823F476
:104F1000F843FB603B68DA693B681B6A1A433B68ED
:104F20005B6A1343FA681343FB607B685B68BB6092
:104F3000BB6823F4FF4323F07F03BB603B685A68E0
:104F40003B689B681A433B68DB681A433B681B69F4
:104F50001A433B685B691A433B689B691343BA6811
:104F60001343BB607B68FA681A607B68BA685A6052
:104F7000002318461437BD465DF8047B704780B4A3
:104F800087B000AFF860B9607A6000237B610023CE
:104F90003B617B68012B2ED0FB689B687B617B6942
:104FA00003F070437B61BB681B685A1EBB685B687B
:104FB000013B1B011A43BB689B68013B1B021A4360
:104FC000BB68DB68013B1B031A43BB681B69013BE1
:104FD0001B041A43BB685B69013B1B051A43BB6892
:104FE0009B69013B1B0613437A6913437B61FB6892
:104FF0007A699A603BE0FB689B687B617B6923F47C
:10500000700323F470437B61BB68DB68013B1A03C8
:10501000BB685B69013B1B0513437A6913437B61E2
:10502000FB68DB683B613B6903F070433B61BB6835
:105030001B685A1EBB685B68013B1B011A43BB68B7
:105040009B68013B1B021A43BB681B69013B1B04A5
:105050001A43BB689B69013B1B0613433A69134320
:105060003B61FB687A699A60FB683A69DA60002301
:1050700018461C37BD465DF8047B704780B586B086
:1050800000AFF860B9607A6000233B6100237B6168
:10509000BB681A68BB685B681A43BB689B68013BC6
:1050A0005B011A43BB68DB685B0213433B613A69EF
:1050B000FB681A61FCF73CFD786110E07B68B3F196
:1050C000FF3F0CD07B68002B07D0FCF731FD024678
:1050D0007B69D31A7A689A4201D2032306E0FB68FF
:1050E0009B6903F02003202BE8D0002318461837D3
:1050F000BD4680BD80B483B000AF786039607B6806
:105100005A693B685B001A437B685A610023184662
:105110000C37BD465DF8047B7047000080B584B055
:1051200000AFFCF79FFC00F079F900F0D1FB00F034
:10513000FFF900F011FA00F07DFB00F03FFA00F0FB
:105140007DFA00F02DFB00F03FFB282200219C4857
:1051500001F0BAFAFBF776FD4FF050410020FBF763
:10516000F3FD0020FBF754FE964B00221A70964B7D
:1051700003221A80954B00221A80954B14221A8024
:10518000944B14221A808F4B1B780133DAB28D4B6B
:105190001A709148FBF77CFE28220021884801F014
:1051A00093FA884B1B781A468C498D4801F094FA83
:1051B0008C49834801F0B0FA8949814801F0ACFA82
:1051C0007F490020FBF78AFF282200217C4801F05C
:1051D0007BFA7E4BB3F900301A468049804801F0D3
:1051E0007BFA8149764801F097FA7D49744801F0CD
:1051F00093FA73490120FBF771FF282200217048C0
:1052000001F062FA704BB3F900301A4673497448E2
:1052100001F062FA75496A4801F07EFA70496848FF
:1052200001F07AFA66490220FBF758FF704B002222
:105230001A706F4B00225A706D4B00229A706D4BA2
:1052400001221A706B4B01225A706A4B01229A702C
:105250000023FB6015E06848FEF7FFFF0246674B3E
:105260001B689A4205D2664AFB68134401221A70F1
:1052700004E0634AFB68134400221A70FB680133A0
:10528000FB60FB68022BE6DD5E4AF0210020FBF7A5
:105290003DFF4FF4FA60FCF757FC0023BB601DE0B4
:1052A000574ABB6813441B78002B0AD0BA681346D0
:1052B0009B0013441B01544AF0211846FBF726FFBC
:1052C00009E0BA6813469B0013441B014F4AF021C2
:1052D0001846FBF71BFFBB680133BB60BB68022BA2
:1052E000DEDD4B4B01221A704FF47A60FCF72CFC88
:1052F000474B00221A7000237B6029E0404A7B68FC
:1053000013441B78002B20D03A4A7B6813441B7847
:10531000002B1AD02C4BB3F900309BB2013B9BB24F
:105320001AB2294B1A80284BB3F90030002B02DA4D
:10533000254B00221A807A6813469B0013441B01F8
:10534000344AF0211846FBF7E1FE7B6801337B60AD
:105350007B68022BD2DD28220021194801F0B4F924
:10536000194BB3F900301A461C491D4801F0B4F935
:105370001E49134801F0D0F91949114801F0CCF940
:105380000F490220FBF7AAFE0F4BB3F90030002BA8
:1053900011DC282200210A4801F096F91E4908482C
:1053A00001F0BAF906490220FBF798FE4FF47A6043
:1053B000FCF7CAFBFAE74FF47A60FCF7C5FBE2E6BC
:1053C0002C780220B076022046740220B2760220A9
:1053D000487402204A740220000080FF1C6F0008FD
:1053E0005479022054740220607402206C740220EC
:1053F000B476022050740220047902204C740220FA
:10540000B876022050000020D4910120CCE1002089
:105410002878022050DD01207874022080B5A0B0E9
:1054200000AF07F1500330220021184601F04CF97B
:1054300007F13C0300221A605A609A60DA601A6130
:1054400007F10C0330220021184601F03DF900233A
:10545000BB60354B1B6C344A43F080531364324BB2
:105460001B6C03F08053BB60BB6800237B602F4B39
:105470001B682E4A43F4404313602C4B1B6803F413
:1054800040437B607B6801233B654FF480337B6541
:105490000223BB664FF48003FB6604233B67B423FF
:1054A0007B670223BB670423FB6707F150031846A1
:1054B000FEF79AF80346002B01D000F0B3FAFEF78E
:1054C00043F80346002B01D000F0ACFA0F23FB6336
:1054D00002233B6400237B644FF4A053BB644FF46E
:1054E0008053FB6407F13C0305211846FEF7BEFA22
:1054F0000346002B01D000F095FA0823FB60A62399
:10550000FB6102237B6200233B6307F10C03184617
:10551000FEF786FC0346002B01D000F083FA00BFA3
:105520008037BD4680BD00BF00380240007000409B
:1055300080B500AF064B074A1A600548FCF737FCF8
:105540000346002B01D000F06DFA00BF80BD00BF04
:10555000547802200030024080B500AF154B164A47
:105560001A60144B00225A60124B02229A60114BAF
:105570000022DA600F4B00229A620E4B0222DA629E
:105580000C4B00221A630B4B00225A630948FCF7AC
:10559000E9FD0346002B01D000F044FA0121054843
:1055A000FCF73EFF0346002B01D000F03BFA00BFA2
:1055B00080BD00BF1479022000B0024080B500AF6A
:1055C0001B4B1C4A1A601A4B1B4A5A60184B00228C
:1055D0009A60174B0022DA60154B4FF480421A6133
:1055E000134B00225A61124B00229A61104B002289
:1055F000DA610F4B00221A620D48FDF731FB0346BA
:10560000002B01D000F00EFA00210948FDF750FCF4
:105610000346002B01D000F005FA00210448FDF7F5
:1056200083FC0346002B01D000F0FCF900BF80BDD5
:105630007C770220005C0040A086010080B59AB013
:1056400000AF07F1340334220021184601F03CF882
:105650003B4634220021184601F036F84E4B4F4AA3
:105660001A604D4B00225A604B4B00229A604A4B05
:105670000022DA60484B00221A61474B07225A6128
:10568000454B03229A61444B0E22DA61424B0522BC
:105690001A62414BFE225A623F4B40F245129A6217
:1056A0003D4B4FF48272DA623B4B40F247121A6371
:1056B000394B282283F83420374B282283F83520B1
:1056C000354B282283F836203348FDF76DFC03461E
:1056D000002B01D000F0A6F900237B630023BB63FD
:1056E0000023FB6300233B6400237B640023BB6433
:1056F0000023FB644FF480633B6505237B65002337
:10570000BB650023FB6500233B66002387F86430FC
:10571000002387F86530002387F8663007F13403EB
:10572000002219461C48FDF70FFD0346002B01D04F
:1057300000F078F900233B6000237B600023BB600E
:105740000023FB6000233B6100237B610023BB61DE
:105750004FF48063FB6105233B6200237B620023DF
:10576000BB620023FB62002387F83030002387F8F8
:105770003130002387F832303B4601221946064873
:10578000FDF7E2FC0346002B01D000F04BF900BF0F
:105790006837BD4680BD00BF5C78022000680140CC
:1057A00080B500AF064B074A1A600548FEF7DCFCDF
:1057B0000346002B01D000F035F900BF80BD00BFCB
:1057C000047902200008065080B500AF174B184A34
:1057D0001A60164B4FF482725A60144B00229A6082
:1057E000124B0022DA60114B00221A610F4B00228B
:1057F0005A610E4B4FF400729A610C4B0022DA6131
:105800000A4B00221A62094B00225A62074B0022FF
:105810009A62064B0A22DA620448FEF7B2FD03469A
:10582000002B01D000F0FEF800BF80BDD077022031
:105830000050014080B588B000AF3B1D00221A60C7
:105840005A609A60DA601A615A619A611E4B1F4A67
:105850001A601D4B01225A601B4B00229A601A4BA2
:105860000422DA60184B10221A61174B40225A6149
:10587000154B80229A61144B0022DA61124B0022F0
:105880001A62114B00225A620F4B00229A621023B7
:105890007B601023BB601023FB6010233B6110234F
:1058A0007B611023BB611023FB613B1D1946064839
:1058B000FEF7E8FC0346002B01D000F0B3F800BF70
:1058C0002037BD4680BD00BF5C790220400100A0AA
:1058D00080B58EB000AF07F1240300221A605A6031
:1058E0009A60DA601A6100233B624B4B1B6B4A4A99
:1058F00043F010031363484B1B6B03F010033B6230
:105900003B6A0023FB61444B1B6B434A43F020037B
:105910001363414B1B6B03F02003FB61FB69002306
:10592000BB613D4B1B6B3C4A43F0800313633A4B16
:105930001B6B03F08003BB61BB6900237B61364BAB
:105940001B6B354A43F004031363334B1B6B03F0AB
:1059500004037B617B6900233B612F4B1B6B2E4A49
:1059600043F0010313632C4B1B6B03F001033B61FA
:105970003B690023FB60284B1B6B274A43F0020363
:105980001363254B1B6B03F00203FB60FB680023D2
:10599000BB60214B1B6B204A43F0400313631E4B3B
:1059A0001B6B03F04003BB60BB6800237B601A4B9A
:1059B0001B6B194A43F008031363174B1B6B03F06F
:1059C00008037B607B6854237B62144BBB6200231B
:1059D000FB6207F1240319461148FCF74FFE002231
:1059E00000210820FCF7ADF90820FCF7C6F90022D9
:1059F00000210A20FCF7A5F90A20FCF7BEF90022D5
:105A000000211720FCF79DF91720FCF7B6F900BF1D
:105A10003837BD4680BD00BF00380240000011107D
:105A20000010024080B400AF00BFBD465DF8047BAB
:105A30007047000080B483B000AF00237B60104B40
:105A40005B6C0F4A43F4804353640D4B5B6C03F46F
:105A500080437B607B6800233B60094B1B6C084ADA
:105A600043F080531364064B1B6C03F080533B6080
:105A70003B6800BF0C37BD465DF8047B704700BF34
:105A80000038024080B485B000AF78607B681B6846
:105A90000B4A93420DD10023FB600A4B1B6B094A52
:105AA00043F480531363074B1B6B03F48053FB6079
:105AB000FB6800BF1437BD465DF8047B704700BF2C
:105AC000003002400038024080B485B000AF7860FA
:105AD0007B681B680B4A93420DD10023FB600A4B85
